:100000000C9462000C948A000C948A000C948A0070
:100010000C948A000C948A000C948A000C948A0038
:100020000C948A000C948A000C948A000C9412059B
:100030000C948A000C948A000C948A000C948A0018
:100040000C94C8040C948A000C9496040C947004CC
:100050000C948A000C948A000C948A000C948A00F8
:100060000C948A000C948A000000000024002700F1
:100070002A0000000000250028002B0000000008D6
:10008000000201000003040700000000000000005F
:1000900000000000230026002900040404040404D6
:1000A0000404020202020202030303030303010227
:1000B00004081020408001020408102001020408F6
:1000C0001020130611241FBECFEFD8E0DEBFCDBF36
:1000D00011E0A0E0B1E0ECEFF4E102C005900D9278
:1000E000AC37B107D9F722E0ACE7B1E001C01D920F
:1000F000A536B207E1F710E0C2E6D0E004C02197D0
:10010000FE010E94760AC136D107C9F70E949D06FA
:100110000C947C0A0C940000E0914A02EC3088F5C3
:1001200040914B0228E830E0241B310947FD33950C
:10013000220F331F220F331F8217930784F0409141
:100140004C0228E532E0241B310947FD3395220F8C
:10015000331F220F331F821793070CF49C01225088
:100160003109220F331F4FB7F8948E2F90E0FC0116
:10017000EE0FFF1FE80FF91FEB5DFD4F3283218368
:100180004FBF0895AF92BF92CF92DF92EF92FF924E
:100190000F931F93CF93DF936C017B018B01040FAF
:1001A000151FEB015E01AE18BF08C017D10759F04B
:1001B0006991D601ED91FC910190F081E02DC6018D
:1001C0000995892B79F7C501DF91CF911F910F9187
:1001D000FF90EF90DF90CF90BF90AF900895FC011B
:1001E000538D448D252F30E0842F90E0821B930B9C
:1001F000541710F0CF96089501970895FC01918D42
:10020000828D981761F0A28DAE0FBF2FB11D5D9644
:100210008C91928D9F5F9F73928F90E008958FEFE6
:100220009FEF0895FC01918D828D981731F0828D9A
:10023000E80FF11D858D90E008958FEF9FEF0895F1
:10024000FC01918D228D892F90E0805C9F4F821B55
:1002500091098F739927089588E891E00E94200101
:1002600021E0892B09F420E0822F089580E090E0BE
:10027000892B29F00E942C0181110C940000089513
:10028000FC01A48DA80FB92FB11DA35ABF4F2C910B
:10029000848D90E001968F739927848FA689B78902
:1002A0002C93A089B1898C91837080648C93938DF9
:1002B000848D981306C00288F389E02D80818F7D9C
:1002C00080830895EF92FF920F931F93CF93DF9354
:1002D000EC0181E0888F9B8D8C8D98131AC0E88982
:1002E000F989808185FF15C09FB7F894EE89FF8951
:1002F0006083E889F98980818370806480839FBFEF
:1003000081E090E0DF91CF911F910F91FF90EF90EE
:100310000895F62E0B8D10E00F5F1F4F0F731127FE
:10032000E02E8C8D8E110CC00FB607FCFACFE88939
:10033000F989808185FFF5CFCE010E944001F1CF80
:10034000EB8DEC0FFD2FF11DE35AFF4FF0829FB7AD
:10035000F8940B8FEA89FB8980818062CFCFCF939D
:10036000DF93EC01888D8823B9F0AA89BB89E889DD
:10037000F9898C9185FD03C0808186FD0DC00FB683
:1003800007FCF7CF8C9185FFF2CF808185FFEDCF01
:10039000CE010E944001E9CFDF91CF91089590E016
:1003A000FC01E458FF4F2491FC01E255FF4F3491CA
:1003B000FC01E656FF4FE491EE23C9F0222339F009
:1003C000233001F1A8F4213019F1223029F1F0E0B5
:1003D000EE0FFF1FEE58FF4FA591B4918FB7F89421
:1003E000EC91611126C030953E233C938FBF089558
:1003F0002730A9F02830C9F0243049F780918000D7
:100400008F7D03C0809180008F7780938000DFCF45
:1004100084B58F7784BDDBCF84B58F7DFBCF809192
:10042000B0008F778093B000D2CF8091B0008F7DE5
:10043000F9CF3E2BDACFCF93DF9390E0FC01E2556A
:10044000FF4F249186569F4FFC0184918823D1F061
:1004500090E0880F991FFC01E859FF4FA591B491D6
:10046000FC01EE58FF4FC591D49161110EC09FB7AA
:10047000F8948C91E22FE0958E238C932881E223CF
:10048000E8839FBFDF91CF9108958FB7F894EC91E7
:10049000E22BEC938FBFF6CF3FB7F89480918201A7
:1004A00090918301A0918401B091850126B5A89B0C
:1004B00005C02F3F19F00196A11DB11D3FBFBA2FF6
:1004C000A92F982F8827BC01CD01620F711D811DB6
:1004D000911D42E0660F771F881F991F4A95D1F73B
:1004E00008958F929F92AF92BF92CF92DF92EF9238
:1004F000FF924B015C010E944C026B017C010E9447
:100500004C026C197D098E099F09683E7340810574
:100510009105A8F321E0821A9108A108B10888EE9C
:10052000C80E83E0D81EE11CF11C81149104A104C3
:10053000B10429F7FF90EF90DF90CF90BF90AF907C
:100540009F908F900895089590E080E008950F9314
:100550001F9390E0FC01E255FF4F6491FC01E656C9
:10056000FF4FE491F0E0EE0FFF1FE057FF4F859142
:10057000949100E412E42FE030E0462F0E94CE0573
:10058000611571058105910529F06F5F7F4F8F4FD0
:100590009F4F9F701F910F910895CF93DF93EC01B0
:1005A00060E08E810E94CF0161E08E810E94CF01C8
:1005B00060E08E810E94CF018BE891E00197F1F716
:1005C000DF91CF910895CF92DF92EF92FF920F9338
:1005D0001F93CF93DF936C017C0187E0E80EF11C41
:1005E000D0E0C0E0062F10E0B8010C2E02C07595D7
:1005F00067950A94E2F76170F70181917F010E948B
:10060000CF012196C430D10579F7C601DF91CF9192
:100610001F910F91FF90EF90DF90CF900C94CD023F
:10062000CF92DF92EF92FF920F931F93CF93DF93BE
:10063000EC01F62E642F8C810E94CF018D818F3FBB
:1006400019F060E00E94CF010F2D10E08F8584FF2C
:1006500025C06E0187E0C80ED11CF12CE12CB80139
:100660000E2C02C0759567950A94E2F76170F60149
:1006700081916F010E94CF01FFEFEF1AFF0A88E01E
:10068000E816F10461F7CE01DF91CF911F910F9130
:10069000FF90EF90DF90CF900C94CD02B80184E0F2
:1006A000759567958A95E1F7CE010E94E3026F2D5B
:1006B000CE01DF91CF911F910F91FF90EF90DF90CE
:1006C000CF900C94E30240E0682F8DE492E00C940C
:1006D0001003CF93DF93823029F490915C029860ED
:1006E00090935C02809360021092610280E4809398
:1006F000620280E18093630280E58093640261E09E
:10070000809151020E941B02809152028F3F19F08A
:1007100061E00E941B0261E0809153020E941B0273
:10072000CDE4D2E09E012D54324080915C0284FDE4
:100730000BC084E090E021962817390744F461E06B
:100740008E810E941B02EECF88E090E0F4CF8BE315
:100750009DE00197F1F760E0809151020E94CF0186
:1007600060E0809153020E94CF01809152028F3F3E
:1007700019F060E00E94CF0180915C0284FD39C0D5
:1007800063E08DE492E00E94E302CBE4D6E4CE0184
:100790000197F1F763E08DE492E00E94E302219774
:1007A000F1F763E08DE492E00E94E30283E592E0DA
:1007B0000197F1F762E08DE492E00E94E3028091FC
:1007C0005C0280620E94630384E080935D028CE09F
:1007D0000E94630381E00E9463038BE39FE1019722
:1007E000F1F782E080935E0286E0DF91CF910C9476
:1007F000630380620E9463038BE496E40197F1F740
:1008000080915C0280620E94630383E592E001971D
:10081000F1F780915C0280620E946303D0CF41E0D7
:100820000E94100381E090E00895FB0101900020F8
:10083000E9F73197AF01461B570BDC01ED91FC91B5
:100840000280F381E02D09948F929F92AF92BF9224
:10085000EF92FF920F931F93CF93DF93CDB7DEB745
:10086000A1970FB6F894DEBF0FBECDBF7C01FA0191
:10087000CB0119A2223008F42AE08E010F5D1F4F30
:10088000822E912CB12CA12CBF01A50194010E94B4
:100890000809F901CA016A300CF5605DD8016E9350
:1008A0008D01232B242B252B79F790E080E01097E6
:1008B00021F0BD01C7010E941504A1960FB6F8945E
:1008C000DEBF0FBECDBFDF91CF911F910F91FF9083
:1008D000EF90BF90AF909F908F900895695CDECFAE
:1008E0001F920F920FB60F9211242F933F934F93A5
:1008F0005F936F937F938F939F93AF93BF93EF9388
:10090000FF9388E891E00E944001FF91EF91BF9131
:10091000AF919F918F917F916F915F914F913F9197
:100920002F910F900FBE0F901F9018951F920F924E
:100930000FB60F9211242F938F939F93EF93FF93F2
:10094000E0919801F09199018081E0919E01F091F0
:100950009F0182FD1BC090818091A1018F5F8F73E9
:100960002091A201821741F0E091A101F0E0E85747
:10097000FE4F958F8093A101FF91EF919F918F91F1
:100980002F910F900FBE0F901F9018958081F4CF7C
:100990001F920F920FB60F9211242F933F938F93B4
:1009A0009F93AF93BF9380917E0190917F01A0911F
:1009B0008001B091810130917D0123E0230F2D371B
:1009C00058F50196A11DB11D20937D0180937E01F4
:1009D00090937F01A0938001B09381018091820167
:1009E00090918301A0918401B09185010196A11D90
:1009F000B11D8093820190938301A0938401B093F1
:100A00008501BF91AF919F918F913F912F910F9051
:100A10000FBE0F901F90189526E8230F0296A11D78
:100A2000B11DD2CF1F920F920FB60F9211242F93A8
:100A30003F934F935F936F937F938F939F93AF9366
:100A4000BF93CF93DF93EF93FF9380917C01C0918D
:100A50004902D0E087FF24C01092850010928400E4
:100A600080917C018F5F80937C0180917C01082EB6
:100A7000000C990B8C179D0724F480917C018C301D
:100A8000C4F18091840090918500049680349C4943
:100A900008F47AC08091840090918500049676C015
:100AA00080917C01082E000C990B8C179D07C4F6D1
:100AB000E0917C018E2FEE0F990BFC01EE0FFF1FD2
:100AC000E80FF91FEB5DFD4F808186FFC9CFE091F4
:100AD0007C018E2FEE0F990BFC01EE0FFF1FE80F2C
:100AE000F91FEB5DFD4F808160E08F730E94CF01A5
:100AF000B7CF2091840030918500E0917C018E2F4A
:100B0000EE0F990BFC01EE0FFF1FE80FF91FEB5DD5
:100B1000FD4F81819281820F931F90938900809372
:100B20008800E0917C018E2FEE0F990BFC01EE0FF7
:100B3000FF1FE80FF91FEB5DFD4F808186FF11C09D
:100B4000E0917C018E2FEE0F990BFC01EE0FFF1F41
:100B5000E80FF91FEB5DFD4F808161E08F730E940C
:100B6000CF01FF91EF91DF91CF91BF91AF919F9115
:100B70008F917F916F915F914F913F912F910F9046
:100B80000FBE0F901F90189580E49CE99093890008
:100B9000809388008FEF80937C01E3CFCF92DF9228
:100BA000EF92FF920F931F93E82FF92F05C001508A
:100BB00011092109310961F1908196239417B9F344
:100BC00005C0015011092109310911F190819623C5
:100BD0009413F7CFC12CD12CE12CF12C0AC08FEF4C
:100BE000C81AD80AE80AF80A0C151D052E053F0593
:100BF00079F080818623841791F36C2D7D2D8E2DC5
:100C00009F2D1F910F91FF90EF90DF90CF9008954F
:100C100060E070E080E090E01F910F91FF90EF9016
:100C2000DF90CF900895CF9310928B0110928A019C
:100C300088EE93E0A0E0B0E080938C0190938D016A
:100C4000A0938E01B0938F0184E091E0909389018D
:100C50008093880185EC90E09093950180939401B6
:100C600084EC90E0909397018093960180EC90E063
:100C7000909399018093980181EC90E090939B016F
:100C800080939A0182EC90E090939D0180939C0167
:100C900086EC90E090939F0180939E011092A101B9
:100CA0001092A2011092A3011092A401109250027E
:100CB00010924F0286E191E090934E0280934D0294
:100CC0008AE080935102CFEFC093520289E0809373
:100CD000530285E08093540284E08093550283E0C0
:100CE0008093560282E0809357021092580210922D
:100CF000590210925A0210925B0210925C0281E03B
:100D00000E946903809149028C30A0F491E0980F11
:100D10009093490280934A0290E0FC01EE0FFF1F7E
:100D2000E80FF91FEB5DFD4F88EB9BE09283818319
:100D3000CF910895C0934A02FBCF789484B5826026
:100D400084BD84B5816084BD85B5826085BD85B56F
:100D5000816085BD80916E00816080936E001092ED
:100D60008100809181008260809381008091810068
:100D700081608093810080918000816080938000F9
:100D80008091B10084608093B1008091B000816057
:100D90008093B00080917A00846080937A00809183
:100DA0007A00826080937A0080917A0081608093DB
:100DB0007A0080917A00806880937A001092C10056
:100DC000E0919801F091990182E08083E091940193
:100DD000F09195011082E0919601F09197018FECCE
:100DE00080831092A001E0919C01F0919D0186E02A
:100DF0008083E0919A01F0919B01808180618083E2
:100E0000E0919A01F0919B01808188608083E0915C
:100E10009A01F0919B01808180688083E0919A0122
:100E2000F0919B0180818F7D808382E00E94690325
:100E300061E08DE00E941B0260E08BE00E941B02DB
:100E400080914A028C3008F051C061E088E00E9435
:100E50001B0280914A02282F30E0F901EE0FFF1F9C
:100E6000E20FF31FEB5DFD4F9081907C98609083C3
:100E700010924B0210924C022CE0622F0E946A0AE0
:100E8000829FB001112430E020E0AB01420F531FDC
:100E9000FA01EE0FFF1FE40FF51FEB5DFD4F908190
:100EA00096FD16C02F5F3F4F2C30310571F7811131
:100EB0000FC01092800082E0809381001092850024
:100EC00010928400B19A80916F00826080936F00CD
:100ED000E0914A028E2F90E0FC01EE0FFF1FE80F19
:100EE000F91FEB5DFD4F80818064808361E087E0C6
:100EF0000E941B0260E086E00E941B026EE171E02E
:100F000088E891E00E94150468EE73E080E090E0CC
:100F10000E9471026EE371E088E891E00E9415047E
:100F200060ED77E080E090E00E94710233E0232ED4
:100F3000312C03E210E04AE3842E912CA12CB12C39
:100F4000C8E8D0E054EB452E512C612C712C60E0A8
:100F50008DE00E94CF01C1010197F1F761E08DE0C2
:100F60000E94CF01C8010197F1F760E08DE00E9477
:100F7000CF018BE00E94A7020E94710926E933E4A9
:100F80004BE05DE30E94D50920E030E040E05FE304
:100F90000E94D5090E9439097093870160938601E8
:100FA000E1E0809160028111E0E0E195F0E0E35B37
:100FB000FD4F848980680E9463036EE471E08DE4D4
:100FC00092E00E941504C0908601D09087010D2CFC
:100FD000000CEE08FF082AE0B701A601F7FE0EC0DC
:100FE00041E06DE28DE492E00E9410034427552712
:100FF000BA014C195D096E097F092AE08DE492E07F
:101000000E9424046CE571E08DE492E00E941504D6
:1010100064E170E080E090E00E947102E091600283
:10102000E23008F099C0E150F0E0E35BFD4F8489C5
:1010300080680E94630380918601909187016FE52B
:1010400071E08630910534F063E671E00D9714F09D
:101050006AE671E08DE492E00E94150464E170E0BC
:1010600080E090E00E94710261E087E00E941B0234
:1010700060E087E00E94CF01C1010197F1F761E0D4
:1010800087E00E94CF01C8010197F1F760E087E097
:101090000E94CF0160E086E00E941B0286E00E9471
:1010A000A702A50194010E94DE0869017A016FE69A
:1010B00071E088E891E00E9415042AE0B701A601DA
:1010C000F7FE0DC06DE288E891E00E9462014427BE
:1010D0005527BA014C195D096E097F092AE088E895
:1010E00091E00E9424046CE571E088E891E00E94A0
:1010F000150464E670E080E090E00E947102809147
:101100004B0224E1C216D104E104F1043CF19E013A
:10111000281B310987FD3395C901880F991F880F56
:10112000991F0E948C0069E771E088E891E00E94B5
:10113000150464E670E080E090E00E94710280E0B7
:1011400090E0892B09F403CF0E942C01882309F435
:10115000FECE0E940000FBCEE1E066CF6E01C81A11
:10116000D10887FDD394CC0CDD1CCC0CDD1C0D2CE0
:10117000000CEE08FF0880914C0228E532E0281BA5
:10118000310987FD3395220F331F220F331F032EA2
:10119000000C440B550B2C193D094E095F09AAE5BB
:1011A000B0E00E94FD08A30192010E94DE08DA016E
:1011B000C9018C0D9D1DAE1DBF1DB3CF052E97FB24
:1011C0001EF400940E94F50857FD07D00E940809FC
:1011D00007FC03D04EF40C94F508509540953095DB
:1011E00021953F4F4F4F5F4F089590958095709593
:1011F00061957F4F8F4F9F4F08950E942A09A59FA9
:10120000900DB49F900DA49F800D911D1124089501
:10121000A1E21A2EAA1BBB1BFD010DC0AA1FBB1FFA
:10122000EE1FFF1FA217B307E407F50720F0A21B6C
:10123000B30BE40BF50B661F771F881F991F1A94D9
:1012400069F760957095809590959B01AC01BD0103
:10125000CF010895A29FB001B39FC001A39F700D5D
:10126000811D1124911DB29F700D811D1124911DAE
:1012700008950E9440096894B1110C94CF09089513
:101280000E94B40988F09F5798F0B92F9927B75159
:10129000B0F0E1F0660F771F881F991F1AF0BA951A
:1012A000C9F714C0B13091F00E94CE09B1E00895A1
:1012B0000C94CE09672F782F8827B85F39F0B93F93
:1012C000CCF3869577956795B395D9F73EF49095CD
:1012D0008095709561957F4F8F4F9F4F0895E8944B
:1012E00009C097FB3EF490958095709561957F4F6E
:1012F0008F4F9F4F9923A9F0F92F96E9BB2793951C
:10130000F695879577956795B795F111F8CFFAF42B
:10131000BB0F11F460FF1BC06F5F7F4F8F4F9F4F5C
:1013200016C0882311F096E911C0772321F09EE8BA
:10133000872F762F05C0662371F096E8862F70E020
:1013400060E02AF09A95660F771F881FDAF7880FFA
:101350009695879597F9089557FD9058440F551F16
:1013600059F05F3F71F04795880F97FB991F61F027
:101370009F3F79F087950895121613061406551F9E
:10138000F2CF4695F1DF08C0161617061806991F0A
:10139000F1CF86957105610508940895E894BB27FF
:1013A00066277727CB0197F908950E94E8090C94E6
:1013B000590A0E944B0A38F00E94520A20F09523E5
:1013C00011F00C94420A0C94480A11240C94CF0991
:1013D0000E94AC0970F3959FC1F3950F50E0551F23
:1013E000629FF001729FBB27F00DB11D639FAA277A
:1013F000F00DB11DAA1F649F6627B00DA11D661FC9
:10140000829F2227B00DA11D621F739FB00DA11DE9
:10141000621F839FA00D611D221F749F3327A00DA3
:10142000611D231F849F600D211D822F762F6A2F3F
:1014300011249F5750409AF0F1F088234AF0EE0FA4
:10144000FF1FBB1F661F771F881F91505040A9F7D1
:101450009E3F510580F00C94420A0C94CF095F3FE7
:10146000E4F3983ED4F3869577956795B795F7950D
:10147000E7959F5FC1F7FE2B880F911D9695879585
:1014800097F9089597F99F6780E870E060E0089504
:101490009FEF80EC089500240A941616170618068C
:1014A0000906089500240A94121613061406050668
:1014B0000895092E0394000C11F4882352F0BB0FF9
:1014C00040F4BF2B11F460FF04C06F5F7F4F8F4F5C
:1014D0009F4F0895991B79E004C0991F961708F053
:1014E000961B881F7A95C9F780950895EE0FFF1F08
:0C14F0000590F491E02D0994F894FFCFD2
:1014FC00000000006201C200EF00AF012001FE00FD
:10150C001201000000000F04C200A402A30220413B
:10151C0075746F6D617465642053616E6974697A5A
:10152C0065722044697370656E7365722E004D612F
:10153C0064652042793A2047726F757031004C69AE
:10154C00717569642053746174757300636D004C1C
:10155C006F77004D656469756D0046756C6C004461
:0C156C00697374616E63653A000D0A003B
:00000001FF
